:100000000C9463000C948B000C948B000C948B006C
:100010000C948B000C948B000C948B000C94D700E8
:100020000C948B000C948B000C948B000C948B0024
:100030000C948B000C948B000C948B000C948B0014
:100040000C947C060C948B000C9453030C94A50325
:100050000C948B000C948B000C948B000C948B00F4
:100060000C948B000C948B000000000024002700EF
:100070002A0000000000250028002B0000000000DE
:1000800023002600290004040404040404040202DA
:100090000202020203030303030301020408102007
:1000A0004080010204081020010204081020000012
:1000B0000007000201000003040600000000000029
:1000C0000000A501140511241FBECFEFD8E0DEBF4C
:1000D000CDBF11E0A0E0B1E0E6EDF1E102C0059096
:1000E0000D92AE3BB107D9F712E0AEEBB1E001C023
:1000F0001D92A638B107E1F710E0C6ECD0E004C0CD
:100100002297FE010E94E508C23CD107C9F70E9470
:100110006B060C94E9080C940000CF93DF93EC017C
:10012000862F90E0FC01E656FF4FE491EC83A42F6C
:10013000B0E0FD01E656FF4FE491ED838A579F4FF3
:10014000FC01449150E0440F551FFA01EE58FF4F57
:10015000859194919F838E83AA57BF4FFD0184910F
:10016000E82FF0E0EE0FFF1FE458FF4F85919491C8
:100170009B878A87FA01E859FF4F85919491998767
:100180008887F1E0253F3F0714F024EF31E089E351
:1001900090E0AC01249FC001259F900D349F900DED
:1001A00011244C969D878C87DF91CF9108951F92E3
:1001B0000F920FB60F9211242F933F934F935F939B
:1001C0006F937F938F939F93AF93BF93EF93FF931F
:1001D000E091BE01F091BF01309709F00995FF91C0
:1001E000EF91BF91AF919F918F917F916F915F91AF
:1001F0004F913F912F910F900FBE0F901F90189528
:10020000CF93DF93EC01E885F98580819C81892B70
:100210008083EE81FF8190818C818095892380830A
:1002200084E090E00E944307EE81FF8180819C8101
:10023000892B80838AE090E00E944307EE81FF8152
:1002400090818C81809589238083E885F9859081D0
:100250008C818095892380830E94C406605B794BE2
:100260008F4F9F4F6E877F87888B998BEA85FB85A1
:10027000208130E08D8190E028233923232BC9F0A1
:100280000E94C4062E853F8548895989261737075D
:100290004807590770F0EACF0E94C4062E853F85B3
:1002A00048895989261737074807590710F480E00D
:1002B00019C0EA85FB85208130E08D8190E02823FC
:1002C0003923232B49F30E94C4062C853D8540E049
:1002D00050E0260F371F481F591F2E873F87488B36
:1002E000598B81E0DF91CF910895CF93DF93EC019B
:1002F0000E940001882361F422C00E94C4062E855A
:100300003F85488959892617370748075907B8F0A4
:10031000EA85FB85208130E08D8190E02823392318
:10032000232B59F70E94C4064C855D8545505040EB
:100330002E853F85421B530B460F571F02C040E0DE
:1003400050E0CA01DF91CF91089581EC91E066E021
:1003500047E020E931E00E948D00089589E061E0E6
:100360000E94270888E061E00E94270808958CE039
:1003700060E00E9427088DE061E00E94270889E084
:1003800060E00E94270888E060E00E94270883E080
:100390006FEF70E00E9488078BE06FEF70E00E94C3
:1003A000880708958CE061E00E9427088DE060E0F6
:1003B0000E94270889E060E00E94270888E060E04A
:1003C0000E94270883E06FEF70E00E9488078BE0AF
:1003D0006FEF70E00E94880708958CE060E00E9453
:1003E00027088DE060E00E94270889E060E00E9415
:1003F000270888E061E00E94270883E06FEF70E043
:100400000E94880708958CE060E00E9427088DE034
:1004100060E00E94270889E061E00E94270888E0E8
:1004200060E00E9427088BE06FEF70E00E94880771
:1004300008958CE061E00E9427088DE061E00E9451
:10044000270889E061E00E94270888E060E00E94B8
:1004500027088BE06FEF70E00E94880708958CE01A
:1004600061E00E9427088DE061E00E94270889E092
:1004700060E00E94270888E061E00E94270883E08E
:100480006FEF70E00E94880708958CE060E00E94A2
:1004900027088DE060E00E94270889E060E00E9464
:1004A000270888E060E00E94270883E06FEF70E093
:1004B0000E9488078BE06FEF70E00E948807089524
:1004C0008CE061E00E9427088DE061E00E9427082F
:1004D00089E060E00E94270888E060E00E94270829
:1004E00083E06FEF70E00E9488078BE06FEF70E0B1
:1004F0000E94880708950F931F938BE592E00E9456
:100500009B048093C001853609F457C086367CF47D
:10051000893309F464C08A3324F4883309F069C04C
:1005200055C0813679F1843609F063C034C0833711
:1005300001F1843724F4813709F05BC035C0873777
:1005400079F0883709F055C08BE592E060E071E002
:100550000E9454060E94AE0181E08093AC0149C024
:100560008BE592E066E071E00E9454060E94600212
:100570003EC08BE592E065E171E00E9454060E9466
:10058000450235C08BE592E065E271E00E945406B9
:100590000E9419022CC08BE592E061E371E00E9499
:1005A00054060E942F0223C08BE592E06EE371E0B7
:1005B0000E9454060E9403021AC08BE592E064E593
:1005C00071E00E9454060E94ED0111C08BE592E09B
:1005D0006BE671E00E9454060E94D20108C08BE5D0
:1005E00092E06EE771E00E9454060E94B7011092FB
:1005F000AC0162E370E080E090E00E94EA0681ECEA
:1006000091E00E9475018C018BE592E068E971E050
:100610000E945406C80169E370E00E949A088BE5C5
:1006200092E04AE050E00E9443068BE592E06FE9D9
:1006300071E00E9457060457144070F48091AC0199
:10064000882351F00E94AE0168EE73E080E090E0F4
:100650000E94EA060E942F021F910F9108950F93A6
:100660001F9389E061E00E94E80788E061E00E9452
:10067000E8078CE061E00E94E8078DE061E00E94FD
:10068000E8070BE512E0C80140E855E260E070E0E1
:100690000E94E003C80162EA71E00E9457061F91C0
:1006A0000F91089508951F920F920FB60F92112483
:1006B0002F933F934F938F939F93EF93FF9380914B
:1006C000C00082FD1DC04091C600209113023091F0
:1006D00014022F5F3F4F2F7330708091150290915D
:1006E00016022817390771F0E0911302F0911402F5
:1006F000ED52FE4F4083309314022093130202C048
:100700008091C600FF91EF919F918F914F913F9102
:100710002F910F900FBE0F901F901895E0916702D8
:10072000F0916802E05CFF4F8191919120813181CD
:10073000805C9F4F821B930B60E470E00E94AE08C8
:10074000892B11F00E94520308951F920F920FB649
:100750000F9211242F933F938F939F93EF93FF93C7
:1007600020915702309158028091590290915A027B
:100770002817390731F48091C1008F7D8093C10023
:1007800014C0E0915902F0915A02E95EFD4F2081B8
:100790008091590290915A0201968F7390709093B4
:1007A0005A02809359022093C600FF91EF919F91C6
:1007B0008F913F912F910F900FBE0F901F90189522
:1007C000AF92BF92DF92EF92FF920F931F93CF935E
:1007D000DF93EC017A018B01DD24403081EE580774
:1007E00080E0680780E0780711F0DD24D39491E081
:1007F000A92EB12CEC89FD89DD2069F0C50108A086
:1008000002C0880F991F0A94E2F7808360E079E0C4
:100810008DE390E005C0108260E874E88EE190E01E
:10082000A80197010E94C10821503040404050402B
:10083000569547953795279580E12030380720F069
:10084000DD2011F0DD24D6CFE889F9893083EA89EB
:10085000FB89208319A2EE89FF89408121E030E0E5
:10086000C9010C8C02C0880F991F0A94E2F7482B2B
:100870004083EE89FF894081C9010D8C02C0880F39
:10088000991F0A94E2F7482B4083EE89FF89408143
:10089000C9010E8C02C0880F991F0A94E2F7482BF9
:1008A0004083EE89FF8980810F8C02C0220F331FA5
:1008B0000A94E2F7209528232083DF91CF911F919E
:1008C0000F91FF90EF90DF90BF90AF900895DC0103
:1008D0001C96ED91FC911D97E05CFF4F81919191E9
:1008E00020813181805C9F4F821B930B60E470E01C
:1008F0000E94AE080895DC011C96ED91FC911D97B5
:10090000E05CFF4F20813181E054F040DF01AE5BBD
:10091000BF4F8D919C9111972817390719F42FEF2C
:100920003FEF07C08D919C91E80FF91F8081282F20
:1009300030E0C9010895DC011C96ED91FC911D97F2
:10094000E05CFF4F20813181E054F040DF01AE5B7D
:10095000BF4F8D919C9111972817390719F42FEFEC
:100960003FEF10C08D919C911197E80FF91F2081E6
:100970008D919C91119701968F73907011969C9315
:100980008E9330E0C9010895DC0191968C91919786
:10099000882339F05496ED91FC915597808186FF1C
:1009A000F9CF91961C920895CF93DF93EC01EE85D9
:1009B000FF85E05CFF4F20813181E054F0402F5FE4
:1009C0003F4F2F733070DF01AE5BBF4F8D919C9115
:1009D000119728173907D1F3E05CFF4F808191818F
:1009E000E054F040E80FF91F6083EE85FF85E05C7E
:1009F000FF4F31832083EE89FF89208181E090E0E1
:100A00000F8C02C0880F991F0A94E2F7282B2083CD
:100A100081E089A3EC89FD8980818064808381E005
:100A200090E0DF91CF91089510925E0210925D02E6
:100A300088EE93E0A0E0B0E080935F0290936002C4
:100A4000A0936102B093620281EB91E090935C020B
:100A500080935B0283ED91E090936802809367023C
:100A600087E192E090936A028093690285EC90E0BE
:100A700090936C0280936B0284EC90E090936E02F2
:100A800080936D0280EC90E09093700280936F02EF
:100A900081EC90E0909372028093710282EC90E07E
:100AA000909374028093730286EC90E090937602A8
:100AB0008093750284E08093770283E080937802CC
:100AC00087E08093790285E080937A0281E08093C9
:100AD0007B020895CF92DF92EF92FF920F931F93C4
:100AE000CF93DF937C016B018A01C0E0D0E00FC09F
:100AF000D6016D916D01D701ED91FC910190F081CE
:100B0000E02DC7010995C80FD91F015010400115EC
:100B1000110571F7CE01DF91CF911F910F91FF90D9
:100B2000EF90DF90CF900895EF92FF920F931F9375
:100B30008C01DC01ED91FC910190F081E02D6DE0E4
:100B400009957C01D801ED91FC910190F081E02D97
:100B5000C8016AE009959C012E0D3F1DC9011F9136
:100B60000F91FF90EF900895CF93DF93EC01611503
:100B7000710519F420E030E00FC0DB010D9000207A
:100B8000E9F71197A61BB70BE881F9810280F38181
:100B9000E02DAD0109959C01C901DF91CF91089528
:100BA0004F925F927F928F929F92AF92BF92CF921D
:100BB000DF92EF92FF920F931F93DF93CF93CDB706
:100BC000DEB7A1970FB6F894DEBF0FBECDBF2C01E4
:100BD000742ECB01223008F42AE019A231E2C32E90
:100BE000D12CCC0EDD1E822E9924AA24BB24672D85
:100BF000752FA50194010E94C10879018A01C801DD
:100C0000B701A50194010E947B08472D461B08945B
:100C1000C108D1084A3014F4405D01C0495CF601B6
:100C20004083E114F1040105110521F07E2C5F2DB4
:100C3000C801DDCFC201B6010E94B405A1960FB66E
:100C4000F894DEBF0FBECDBFCF91DF911F910F9102
:100C5000FF90EF90DF90CF90BF90AF909F908F90DC
:100C60007F905F904F900895DC012115310541F48C
:100C7000ED91FC910190F081E02D642F099508958C
:100C80000E94D0050895EF92FF920F931F939A014F
:100C90007B0100E010E0B801A7010E9434061F911B
:100CA0000F91FF90EF9008950E94B4050895EF9280
:100CB000FF920F931F937C010E94B4058C01C70122
:100CC0000E949405080F191FC8011F910F91FF90F2
:100CD000EF9008950895CF93DF930E944D070E94EF
:100CE0006A060E942F03CEE8D3E00E947B02209781
:100CF000E1F30E948E03F9CF1F920F920FB60F926D
:100D000011242F933F938F939F93AF93BF93809121
:100D1000810290918202A0918302B091840230916D
:100D200085020196A11DB11D232F2D5F2D3720F0C7
:100D30002D570196A11DB11D20938502809381023C
:100D400090938202A0938302B093840280917D02EB
:100D500090917E02A0917F02B09180020196A11D28
:100D6000B11D80937D0290937E02A0937F02B09389
:100D70008002BF91AF919F918F913F912F910F90E2
:100D80000FBE0F901F9018959FB7F89420917D0289
:100D900030917E0240917F025091800286B5A89BDF
:100DA00006C08F3F21F02F5F3F4F4F4F5F4F9FBFD8
:100DB000542F432F322F2227280F311D411D511D43
:100DC00082E0220F331F441F551F8A95D1F7B901C6
:100DD000CA0108959B01AC017FB7F89480917D0210
:100DE00090917E02A0917F02B091800266B5A89B8F
:100DF00005C06F3F19F00196A11DB11D7FBFBA2F2D
:100E0000A92F982F8827860F911DA11DB11D62E083
:100E1000880F991FAA1FBB1F6A95D1F7BC012DC06F
:100E2000FFB7F89480917D0290917E02A0917F029D
:100E3000B0918002E6B5A89B05C0EF3F19F001967E
:100E4000A11DB11DFFBFBA2FA92F982F88278E0F84
:100E5000911DA11DB11DE2E0880F991FAA1FBB1FA4
:100E6000EA95D1F7861B970B885E9340C8F2215014
:100E700030404040504068517C4F211531054105BC
:100E8000510571F60895019739F0880F991F880F61
:100E9000991F02970197F1F70895789484B58260BD
:100EA00084BD84B5816084BD85B5826085BD85B50E
:100EB000816085BDEEE6F0E0808181608083E1E8BD
:100EC000F0E01082808182608083808181608083F5
:100ED000E0E8F0E0808181608083E1EBF0E08081F8
:100EE00084608083E0EBF0E0808181608083EAE7CA
:100EF000F0E0808184608083808182608083808153
:100F0000816080838081806880831092C100089511
:100F10001F93CF93DF93182FEB0161E00E94E80746
:100F2000209709F44AC0CF3FD10509F449C0E12F09
:100F3000F0E0E255FF4F84918330C1F0843028F413
:100F4000813051F08230B1F50CC0863019F1873014
:100F500049F1843079F514C084B5806884BDC7BD7B
:100F600033C084B5806284BDC8BD2EC0809180002E
:100F7000806880938000D0938900C093880024C04B
:100F800080918000806280938000D0938B00C0931A
:100F90008A001AC08091B00080688093B000C0932E
:100FA000B30012C08091B00080628093B000C09303
:100FB000B4000AC0C038D1051CF4812F60E002C023
:100FC000812F61E00E942708DF91CF911F91089542
:100FD000CF93DF93482F50E0CA0186569F4FFC0104
:100FE00034914A575F4FFA018491882369F190E068
:100FF000880F991FFC01E859FF4FA591B491FC019E
:10100000EE58FF4FC591D491662351F42FB7F89451
:101010008C91932F909589238C93888189230BC081
:10102000623061F42FB7F8948C91932F90958923B7
:101030008C938881832B88832FBF06C09FB7F89439
:101040008C91832B8C939FBFDF91CF910895482F74
:1010500050E0CA0182559F4FFC012491CA01865677
:101060009F4FFC0194914A575F4FFA01349133230B
:1010700009F440C0222351F1233071F0243028F4C8
:101080002130A1F0223011F514C02630B1F0273004
:10109000C1F02430D9F404C0809180008F7703C060
:1010A000809180008F7D8093800010C084B58F7701
:1010B00002C084B58F7D84BD09C08091B0008F7758
:1010C00003C08091B0008F7D8093B000E32FF0E0EB
:1010D000EE0FFF1FEE58FF4FA591B4912FB7F89474
:1010E000662321F48C919095892302C08C91892BE1
:1010F0008C932FBF0895629FD001739FF001829F50
:10110000E00DF11D649FE00DF11D929FF00D839F96
:10111000F00D749FF00D659FF00D9927729FB00D33
:10112000E11DF91F639FB00DE11DF91FBD01CF0146
:1011300011240895AA1BBB1B51E107C0AA1FBB1FA6
:10114000A617B70710F0A61BB70B881F991F5A9553
:10115000A9F780959095BC01CD01089597FB092EC4
:1011600007260AD077FD04D0E5DF06D000201AF468
:10117000709561957F4F0895F6F7909581959F4FF3
:101180000895A1E21A2EAA1BBB1BFD010DC0AA1FC8
:10119000BB1FEE1FFF1FA217B307E407F50720F0E0
:1011A000A21BB30BE40BF50B661F771F881F991F5B
:1011B0001A9469F760957095809590959B01AC01A4
:1011C000BD01CF010895EE0FFF1F0590F491E02DB2
:0611D0000994F894FFCF22
:1011D60073746F702000676F696E6720666F727731
:1011E6006172642000676F696E67206261636B7766
:1011F6006172642000676F696E67206C6566742093
:1012060000676F696E672072696768742000676F90
:10121600696E67206261636B7761726473206C65C7
:1012260066742000676F696E67206261636B776121
:1012360072647320726967687420007475726E69CF
:101246006E6720636C6F636B7769736520007475D6
:10125600726E696E6720636F756E746572636C6F0C
:10126600636B77697365200050696E673A20006387
:101276006D00436F6E6E6563746564000100000067
:0E12860000D4046A0567049B047B04C40400C2
:00000001FF
